ENGRO0011681919330          464952464952437525******0457         168191******        0000026000000020240314085021202403148MBL   715373715373
ENGRO0011681918798          589430589430589430******375320       9894PK******000198940000017500000020240314044945202403148ABL   316865712281
ENGRO0011681917606          627197627197352019******1            100500******3510586 0000027000000020240314044454202403143BAH   445232445232
IN1364761681916995          603011603011432056******7            964010******3       0000015000000020240313235854202403148ASK   226309584947
ENGRO0011681915895          464952464952538086******0818         168191******        0000035000000020240313235652202403148MBL   296198296198
ENGRO0011681909804          507642507642623405******             057100******0001    0000070000000020240313233935202403149MIB   566644566644
ENGRO0011681908166          507642507642623405******             057100******0001    0000053000000020240313232312202403149MIB   565276565276
ENGRO0011681906110          627197627197413070******3            100500******3510586 0000032000000020240313231700202403143BAH   165844165844
ENGRO0011681905778          627197627197413060******9            100500******3510586 0000040000000020240313225059202403143BAH   505767505767
IN1364761681903081          627408627408******0301714304561      ******13647616      0000003750000020240313224826202403143HMB   002095884647
ENGRO0011681902593          627197627197413060******9            100500******3510586 0000025000000020240313223454202403143BAH   345293345293
IN1364761681901252          603011603011413060******9            964010******3       0000003500000020240313222809202403148ASK   190727289159
IN1364761681900138          603011603011413060******9            964010******3       0000010000000020240313222615202403148ASK   251785268788
ENGRO0011681892735          627197627197423014******5            100500******3510586 0000010000000020240313215129202403143BAH   512777512777
ENGRO0011681788116          464952464952524521******0182         168178******        0000024000000020240313215121202403148MBL   894299894299
ENGRO0011681891930          627197627197423014******5            100500******3510586 0000015000000020240313214943202403143BAH   494246494246
ENGRO0011681406366          627197627197364015******7            100500******3510586 0000036520000020240313214818202403143BAH   481679481679
ENGRO0011681888991          464952464952234567******0705         168188******        0000000500000020240313212309202403148MBL   294518294518
ENGRO0011681885154          464952464952464951******0092         168188******        0000022000000020240313211250202403148MBL   145533145533
ENGRO0011681828518          627197627197412078******5            100500******3510586 0000016130000020240313203138202403143BAH   313664313664
IN1364761681827321          588974588974136476******7321         188825******610586  0000010000000020240313201033202403143UBL   810912810912
IN1364761681867244          627100627100627100******8307723      8888IN******        0000010000000020240313195020202403140BAF   714160841787
ENGRO0011681859823          627197627197366016******7            100500******3510586 0000013450000020240313194552202403143BAH   455165455165
ENGRO0011681857551          589430589430589430******197392       9894PK******000198940000009000000020240313193606202403148ABL   154756603032
ENGRO0011681864984          627197627197441043******3            100500******3510586 0000018000000020240313193600202403143BAH   355867355867
ENGRO0011681863170          627408627408******0311714243016      ******      16      0000000185400020240313193344202403143HMB   001709881868
ENGRO0011681855597          464952464952464951******5213         168185******        0000006000000020240313193253202403148MBL   725992725992
IN1364761681742549          627100627100627100******5101777      8888IN******        0000020000000020240313192351202403140BAF   698290154586
ENGRO0011681856658          627197627197423018******1            100500******3510586 0000065000000020240313192340202403143BAH   233863233863
ENGRO0011681854348          589430589430589430******185180       9894PK******000198940000009000000020240313192250202403148ABL   145652595538
IN1364761681741652          603011603011451014******7            964010******3       0000031000000020240313192217202403148ASK   540391221750
ENGRO0011681852023          627197627197423018******1            100500******3510586 0000012650000020240313192129202403143BAH   212826212826
ENGRO0011681849520          464952464952234567******1326         168184******        0000003500000020240313192114202403148MBL   805708805708
ENGRO0011681744807          627197627197451014******7            100500******3510586 0000127000000020240313192050202403143BAH   204888204888
IN1364761681846080          588974588974136476******6080         188825******610586  0000001600000020240313192001202403143UBL   804154804154
ENGRO0011681845614          627197627197423016******7            100500******3510586 0000059000000020240313191755202403143BAH   175361175361
ENGRO0011681746453          627197627197451014******7            100500******3510586 0000088700000020240313191732202403143BAH   173162173162
ENGRO0011681842676          464952464952464952******6150         168184******        0000002750000020240313191250202403148MBL   232718232718
ENGRO0011681840129          464952464952234567******5494         168184******        0000017000000020240313190647202403148MBL   940060940060
ENGRO0011681836392          464952464952524521******3622         168183******        0000014000000020240313185818202403148MBL   758637758637
ENGRO0011681832408          627197627197451030******3            100500******3510586 0000096000000020240313185645202403143BAH   564380564380
ENGRO0011681831937          627197627197451030******3            100500******3510586 0000095000000020240313184756202403143BAH   475437475437
ENGRO0011681825968          627197627197341018******1            100500******3510586 0000030806060020240313180434202403143BAH   043248043248
ENGRO0011681821235          464952464952401769******0231         168182******        0000032500000020240313180029202403148MBL   312205312205
IN1364761681819252          627100627100421339******8150         8888IN******        0000010000000020240313175903202403140BAF   647410745041
ENGRO0011681817112          627197627197341018******1            100500******3510586 0000052900000020240313175843202403143BAH   584254584254
IN1364761681816668          627100627100627100******3422711      8888IN******        0000001500000020240313175721202403140BAF   646380077478
IN1364761681815456          588974588974136476******5456         188825******610586  0000015000000020240313175705202403143UBL   396587396587
ENGRO0011681813581          627197627197352001******3            100500******3510586 0000009250000020240313175446202403143BAH   544505544505
IN1364761681811587          603011603011352001******3            964010******3       0000016250000020240313175132202403148ASK   854735751311
IN1364761681810739          603011603011352001******3            964010******3       0000005000000020240313175012202403148ASK   628728509931
ENGRO0011681808758          464952464952464951******5913         168180******        0000060000000020240313174721202403143MBL   819503819503
ENGRO0011681809525          464952464952464951******5017         168180******        0000021287500020240313174655202403148MBL   188175188175
IN1364761681807702          786110786110786110******4271                             0000079000000020240313174343202403148SBL   132712132712
ENGRO0011681798226          464952464952516062******1822         168179******        0000033000000020240313173512202403148MBL   101010101010
ENGRO0011681792372          627197627197324031******1            100500******3510586 0000017050000020240313172958202403143BAH   295647295647
ENGRO0011681789478          464952464952464952******0914         168178******        0000020000000020240313172810202403148MBL   826632826632
ENGRO0011681787404          589388589388589388******4271                             0000005000000020240313172557202403148MCB   345744855831
ENGRO0011681784426          627197627197341012******1            100500******3510586 0000001800000020240313171524202403143BAH   152356152356
IN1364761681725850          588974588974136476******5850         188825******610586  0000026000000020240313171511202403143UBL   392518392518
ENGRO0011681783783          464952464952524521******1270         168178******        0000001260000020240313171343202403148MBL   566250566250
ENGRO0011681781692          627197627197432060******1            100500******3510586 0000070000000020240313171323202403143BAH   132188132188
ENGRO0011681772065          589430589430589430******091820       9894PK******000198940000001000000020240313170133202403148ABL   060123538100
ENGRO0011681765897          464952464952437525******0834         168176******        0000044000000020240313170028202403148MBL   602146602146
ENGRO0011681770514          464952464952464951******6301         168177******        0000009000000020240313165925202403148MBL   562879562879
ENGRO0011681756570          786110786110786110******4271                             0000007800000020240313165645202403148SBL   122855122855
ENGRO0011681771778          464952464952524521******0463         168177******        0000007200000020240313165602202403148MBL   405225405225
ENGRO0011681766126          464952464952524521******1816         168176******        0000020000000020240313165045202403148MBL   996955996955
ENGRO0011681754110          786110786110786110******4271                             0000009000000020240313164942202403148SBL   121149121149
ENGRO0011681763964          627197627197423014******5            100500******3510586 0000015000000020240313164930202403143BAH   492842492842
ENGRO0011681768264          589430589430589430******082106       9894PK******000198940000002400000020240313164848202403148ABL   049277531943
IN1364761681755494          462883462883462883******4271                             0000009135140020240313164015202403147BIP   019214412910
ENGRO0011681749580          589430589430589430******071092       9894PK******000198940000010000000020240313163551202403148ABL   037271525248
ENGRO0011681751650          464952464952437525******1311         168175******        0000000300000020240313163539202403148MBL   922288922288
IN1364761681745335          627100627100421339******1965         8888IN******        0000010000000020240313163523202403140BAF   597190414351
ENGRO0011681750268          589430589430589430******069716       9894PK******000198940000007000000020240313163418202403148ABL   035700524373
ENGRO0011681735216          627197627197442069******5            100500******3510586 0000017000000020240313162944202403143BAH   294278294278
ENGRO0011681729355          627408627408******0311714124819      ******      16      0000010000000020240313162354202403143HMB   001320879422
ENGRO0011681738110          589430589430589430******060071       9894PK******000198940000010000000020240313162347202403148ABL   025558518427
ENGRO0011681691290          589388589388589388******4271                             0000006000000020240313162046202403148MCB   226945852905
IN1364761681726408          588974588974136476******6408         188825******610586  0000010000000020240313161743202403143UBL   389545389545
ENGRO0011681716612          464952464952464951******9615         168171******        0000007304000020240313161716202403148MBL   778271778271
IN1364761681724352          588974588974136476******4352         188825******610586  0000022200000020240313161559202403143UBL   389264389264
ENGRO0011681705373          464952464952437525******0142         168170******        0000033000000020240313161347202403148MBL   570414570414
IN1364761681443831          588974588974136476******3831         188825******610586  0000005000000020240313161245202403143UBL   388760388760
ENGRO0011681713160          464952464952464952******7305         168171******        0000001700000020240313161227202403148MBL   239499239499
IN1364761681711002          627100627100627100******7270865      8888IN******        0000010000000020240313161021202403140BAF   582190444148
ENGRO0011681706917          627197627197423016******7            100500******3510586 0000003560000020240313160937202403143BAH   093596093596
ENGRO0011681710716          627197627197423014******5            100500******3510586 0000005000000020240313160923202403143BAH   092251092251
IN1364761681715684          588974588974136476******5684         188825******610586  0000005800000020240313160854202403143UBL   388197388197
ENGRO0011681709923          589430589430589430******044617       9894PK******000198940000010000000020240313160544202403148ABL   008136508746
ENGRO0011681707927          428325428325324028******7            999999******000000000000012000000020240313160337202403140FBL   918898919142
ENGRO0011681704393          464952464952524521******1373         168170******        0000000050000020240313160007202403148MBL   167175167175
ENGRO0011681695581          627197627197454025******5            100500******3510586 0000003120000020240313155928202403143BAH   592662592662
ENGRO0011681682063          627197627197423014******5            100500******3510586 0000088695000020240313155706202403143BAH   570486570486
ENGRO0011681689138          627197627197363021******9            100500******3510586 0000005000000020240313155539202403143BAH   553823553823
ENGRO0011681677947          627197627197423014******5            100500******3510586 0000088695000020240313155517202403143BAH   551475551475
ENGRO0011681692398          464952464952464952******4179         168169******        0000075000000020240313155400202403148MBL   416584416584
ENGRO0011681687171          464952464952524521******0845         168168******        0000015000000020240313155302202403148MBL   962917962917
IN1364761681683841          588974588974136476******3841         188825******610586  0000002000000020240313154735202403143UBL   384703384703
ENGRO0011681671013          464952464952524521******1373         168167******        0000021600000020240313154345202403148MBL   791999791999
ENGRO0011681673848          464952464952437525******1311         168167******        0000001000000020240313153934202403148MBL   258253258253
IN1364761681665101          627873627873035510******ZPLS         136476******5101    0000044350000020240313153902202403147MBL   102643102643
ENGRO0011681668030          627197627197442026******3            100500******3510586 0000016400000020240313153847202403143BAH   384558384558
IN1364761681590429          588974588974136476******0429         188825******610586  0000002000000020240313153637202403143UBL   381758381758
ENGRO0011681660428          464952464952464951******6883         168166******        0000003350000020240313153039202403148MBL   769972769972
ENGRO0011681560890          627197627197362025******3            100500******3510586 0000026000000020240313152923202403143BAH   292041292041
IN1364761681646302          589430589430589430******010263       9894PK******000198940000011120000020240313152758202403148ABL   969578487655
ENGRO0011681658039          464952464952437525******1270         168165******        0000004000000020240313152637202403148MBL   375169375169
ENGRO0011681627158          627197627197416020******1            100500******3510586 0000010000000020240313152614202403143BAH   261246261246
ENGRO0011681580646          627197627197413079******5            100500******3510586 0000025000000020240313151903202403143BAH   190219190219
ENGRO0011681640120          464952464952437525******0109         168164******        0000033000000020240313151738202403148MBL   182379182379
ENGRO0011681639167          627197627197366016******1            100500******3510586 0000005500000020240313151626202403143BAH   162057162057
ENGRO0011681630728          627408627408******0311714124918      ******      16      0000010000000020240313151434202403143HMB   001100877793
ENGRO0011681636018          464952464952234567******3958         168163******        0000005500000020240313151349202403148MBL   882982882982
ENGRO0011681629825          627197627197366016******1            100500******3510586 0000044500000020240313151031202403143BAH   102986102986
IN1364761681617822          588974588974136476******7822         188825******610586  0000043000000020240313150417202403143UBL   379837379837
ENGRO0011681620185          428325428325353014******3            999999******000000000000005594690020240313150225202403140FBL   679132679865
IN1364761681616502          464952464952234567******1462         136476******6502    0000030000000020240313150209202403148MBL   385973385973
IN1364761681618799          588974588974136476******8799         188825******610586  0000005000000020240313150129202403143UBL   379489379489
ENGRO0011681615897          464952464952516062******4240         168161******        0000027500000020240313150100202403148MBL   207950207950
ENGRO0011681614003          589430589430589430******984612       9894PK******000198940000010000000020240313150044202403148ABL   942231472455
ENGRO0011681608770          589388589388589388******4271                             0000008000000020240313150040202403148MCB   640740849191
ENGRO0011681489018          464952464952234567******0946         168148******        0000044000000020240313150009202403148MBL   273247273247
ENGRO0011681610021          464952464952464951******0629         168161******        0000040800000020240313145715202403148MBL   585082585082
ENGRO0011681611400          464952464952524521******0853         168161******        0000005900000020240313145714202403148MBL   745002745002
ENGRO0011681606229          464952464952464951******0629         168160******        0000088694690020240313145452202403148MBL   194990194990
IN1364761681605768          588974588974136476******5768         188825******610586  0000039615000020240313145450202403143UBL   378642378642
IN1364761681373173          627873627873031016******ZPLS         136476******3173    0000029000000020240313145410202403147MBL   163172163172
IN1364761681603313          588974588974136476******3313         188825******610586  0000000050000020240313145309202403143UBL   378380378380
ENGRO0011681602768          589430589430589430******976305       9894PK******000198940000008700000020240313145233202403148ABL   933247467401
ENGRO0011681596922          627197627197441025******5            100500******3510586 0000130925000020240313145104202403143BAH   510324510324
IN1364761681455031          627873627873035016******ZPLS         136476******5031    0000029250000020240313144947202403147MBL   165874165874
IN1364761681601071          588974588974136476******1071         188825******610586  0000010000000020240313144938202403143UBL   377924377924
IN1364761681588171          462883462883462883******4271                             0000031000000020240313144812202403147BIP   237013310732
IN1364761681600842          462883462883462883******4271                             0000011500000020240313144803202403147BIP   055013310550
IN1364761681598935          786110786110786110******4271                             0000035500000020240313144757202403148SBL   084698084698
ENGRO0011681581887          627197627197341012******1            100500******3510586 0000005900000020240313144423202403143BAH   442198442198
ENGRO0011681591313          627197627197441025******5            100500******3510586 0000150000000020240313144250202403143BAH   424877424877
ENGRO0011681586368          464952464952464952******2164         168158******        0000000220000020240313143845202403148MBL   713781713781
ENGRO0011681576242          464952464952464952******2673         168157******        0000000500000020240313143617202403148MBL   967713967713
ENGRO0011681564895          589388589388589388******4271                             0000010000000020240313142817202403148MCB   942786847452
IN1364761681526924          589388589388589388******4271                             0000010000000020240313142808202403148MCB   640767847146
IN1364761681567620          588974588974136476******7620         188825******610586  0000025500000020240313142641202403143UBL   375252375252
ENGRO0011681563342          627197627197332013******7            100500******3510586 0000030000000020240313142546202403143BAH   254365254365
IN1364761681532388          588974588974136476******2388         188825******610586  0000014860000020240313142512202403143UBL   375109375109
ENGRO0011681559017          627197627197441039******7            100500******3510586 0000059600000020240313141957202403143BAH   195572195572
ENGRO0011681557370          627197627197441039******7            100500******3510586 0000050000000020240313141734202403143BAH   173200173200
ENGRO0011681536356          464952464952234567******4725         168153******        0000002000000020240313141651202403148MBL   917281917281
ENGRO0011681551158          627197627197324035******7            100500******3510586 0000026320000020240313141616202403143BAH   161438161438
ENGRO0011681534877          627197627197311027******1            100500******3510586 0000015800000020240313141356202403143BAH   135461135461
ENGRO0011681547379          627197627197345011******1            100500******3510586 0000094403750020240313141148202403143BAH   114752114752
IN1364761681548010          588974588974136476******8010         188825******610586  0000000050000020240313140927202403143UBL   373316373316
ENGRO0011681545605          464952464952234567******0383         168154******        0000020000000020240313140855202403148MBL   466643466643
IN1364761681519385          589388589388589388******4271                             0000030000000020240313140819202403148MCB   383968845758
IN1364761681544364          588974588974136476******4364         188825******610586  0000007500000020240313140717202403143UBL   373043373043
IN1364761681538991          588974588974136476******8991         188825******610586  0000010000000020240313140430202403143UBL   372884372884
IN1364761681517658          589388589388589388******4271                             0000008000000020240313140341202403148MCB   184135845541
ENGRO0011681529486          627197627197366017******1            100500******3510586 0000024570000020240313135737202403143BAH   573587573587
ENGRO0011681513889          464952464952437525******1254         168151******        0000001500000020240313134740202403148MBL   760986760986
IN1364761681512453          603011603011313046******9            964010******3       0000150000000020240313134738202403148ASK   193344472346
ENGRO0011681506686          627197627197311024******3            100500******3510586 0000010000000020240313133904202403143BAH   390302390302
ENGRO0011681503840          464952464952464952******1355         168150******        0000029250000020240313133205202403148MBL   807373807373
ENGRO0011681491776          589430589430589430******888801       9894PK******000198940000004000000020240313131934202403148ABL   838481417562
ENGRO0011681476146          627197627197363020******7            100500******3510586 0000038700000020240313131521202403143BAH   151974151974
ENGRO0011681481788          464952464952547753******0116         168148******        0000037800000020240313131251202403148MBL   678745678745
IN1364761681478969          588974588974136476******8969         188825******610586  0000016500000020240313131105202403143UBL   367174367174
ENGRO0011681459305          464952464952464951******2885         168145******        0000004000000020240313131058202403148MBL   835419835419
ENGRO0011681470790          627197627197345010******3            100500******3510586 0000002000000020240313130420202403143BAH   041887041887
ENGRO0011681463874          627197627197454020******5            100500******3510586 0000007600000020240313130131202403143BAH   012973012973
